{
  "contractName": "Refund",
  "abi": [
    {
      "anonymous": false,
      "inputs": [
        {
          "indexed": false,
          "internalType": "address",
          "name": "employeeaddress",
          "type": "address"
        }
      ],
      "name": "CompletedEvent",
      "type": "event"
    },
    {
      "anonymous": false,
      "inputs": [
        {
          "indexed": false,
          "internalType": "address",
          "name": "employeeaddress",
          "type": "address"
        }
      ],
      "name": "FailedEvent",
      "type": "event"
    },
    {
      "constant": true,
      "inputs": [],
      "name": "contractCount",
      "outputs": [
        {
          "internalType": "uint256",
          "name": "",
          "type": "uint256"
        }
      ],
      "payable": false,
      "stateMutability": "view",
      "type": "function"
    },
    {
      "constant": true,
      "inputs": [
        {
          "internalType": "address",
          "name": "",
          "type": "address"
        }
      ],
      "name": "contracts",
      "outputs": [
        {
          "internalType": "uint256",
          "name": "id",
          "type": "uint256"
        },
        {
          "internalType": "uint256",
          "name": "minimum_point_long",
          "type": "uint256"
        },
        {
          "internalType": "uint256",
          "name": "minimum_point_lat",
          "type": "uint256"
        },
        {
          "internalType": "uint256",
          "name": "maximum_point_long",
          "type": "uint256"
        },
        {
          "internalType": "uint256",
          "name": "maximum_point_lat",
          "type": "uint256"
        },
        {
          "internalType": "uint256",
          "name": "starting_time",
          "type": "uint256"
        },
        {
          "internalType": "uint256",
          "name": "duration",
          "type": "uint256"
        },
        {
          "internalType": "uint256",
          "name": "gathered_location_count",
          "type": "uint256"
        },
        {
          "internalType": "bool",
          "name": "contract_truth",
          "type": "bool"
        },
        {
          "internalType": "bool",
          "name": "completed",
          "type": "bool"
        },
        {
          "components": [
            {
              "internalType": "uint256",
              "name": "id",
              "type": "uint256"
            },
            {
              "internalType": "string",
              "name": "name",
              "type": "string"
            },
            {
              "internalType": "address",
              "name": "public_address",
              "type": "address"
            }
          ],
          "internalType": "struct Refund.Employee",
          "name": "employee",
          "type": "tuple"
        },
        {
          "components": [
            {
              "internalType": "uint256",
              "name": "id",
              "type": "uint256"
            },
            {
              "internalType": "string",
              "name": "name",
              "type": "string"
            },
            {
              "internalType": "address",
              "name": "public_address",
              "type": "address"
            }
          ],
          "internalType": "struct Refund.Employer",
          "name": "employer",
          "type": "tuple"
        }
      ],
      "payable": false,
      "stateMutability": "view",
      "type": "function"
    },
    {
      "constant": true,
      "inputs": [],
      "name": "employeeCount",
      "outputs": [
        {
          "internalType": "uint256",
          "name": "",
          "type": "uint256"
        }
      ],
      "payable": false,
      "stateMutability": "view",
      "type": "function"
    },
    {
      "constant": true,
      "inputs": [
        {
          "internalType": "uint256",
          "name": "",
          "type": "uint256"
        }
      ],
      "name": "employeeMapping",
      "outputs": [
        {
          "internalType": "address",
          "name": "",
          "type": "address"
        }
      ],
      "payable": false,
      "stateMutability": "view",
      "type": "function"
    },
    {
      "constant": true,
      "inputs": [
        {
          "internalType": "address",
          "name": "",
          "type": "address"
        }
      ],
      "name": "employees",
      "outputs": [
        {
          "internalType": "uint256",
          "name": "id",
          "type": "uint256"
        },
        {
          "internalType": "string",
          "name": "name",
          "type": "string"
        },
        {
          "internalType": "address",
          "name": "public_address",
          "type": "address"
        }
      ],
      "payable": false,
      "stateMutability": "view",
      "type": "function"
    },
    {
      "constant": true,
      "inputs": [],
      "name": "employerCount",
      "outputs": [
        {
          "internalType": "uint256",
          "name": "",
          "type": "uint256"
        }
      ],
      "payable": false,
      "stateMutability": "view",
      "type": "function"
    },
    {
      "constant": true,
      "inputs": [
        {
          "internalType": "address",
          "name": "",
          "type": "address"
        }
      ],
      "name": "employers",
      "outputs": [
        {
          "internalType": "uint256",
          "name": "id",
          "type": "uint256"
        },
        {
          "internalType": "string",
          "name": "name",
          "type": "string"
        },
        {
          "internalType": "address",
          "name": "public_address",
          "type": "address"
        }
      ],
      "payable": false,
      "stateMutability": "view",
      "type": "function"
    },
    {
      "constant": false,
      "inputs": [
        {
          "internalType": "address[]",
          "name": "addresses",
          "type": "address[]"
        }
      ],
      "name": "initializeEmployers",
      "outputs": [],
      "payable": false,
      "stateMutability": "nonpayable",
      "type": "function"
    },
    {
      "constant": false,
      "inputs": [
        {
          "internalType": "address[]",
          "name": "addresses",
          "type": "address[]"
        }
      ],
      "name": "initializeEmployees",
      "outputs": [],
      "payable": false,
      "stateMutability": "nonpayable",
      "type": "function"
    },
    {
      "constant": false,
      "inputs": [
        {
          "internalType": "uint256[2]",
          "name": "minimumPoints",
          "type": "uint256[2]"
        },
        {
          "internalType": "uint256[2]",
          "name": "maximumPoints",
          "type": "uint256[2]"
        },
        {
          "internalType": "uint256",
          "name": "duration",
          "type": "uint256"
        },
        {
          "internalType": "string",
          "name": "employeeName",
          "type": "string"
        },
        {
          "internalType": "address",
          "name": "employeeAddress",
          "type": "address"
        },
        {
          "internalType": "address",
          "name": "employerAddress",
          "type": "address"
        }
      ],
      "name": "createContractData",
      "outputs": [],
      "payable": false,
      "stateMutability": "nonpayable",
      "type": "function"
    },
    {
      "constant": false,
      "inputs": [
        {
          "internalType": "uint256",
          "name": "longitude",
          "type": "uint256"
        },
        {
          "internalType": "uint256",
          "name": "latitude",
          "type": "uint256"
        }
      ],
      "name": "getLocation",
      "outputs": [
        {
          "internalType": "bool",
          "name": "",
          "type": "bool"
        }
      ],
      "payable": false,
      "stateMutability": "nonpayable",
      "type": "function"
    },
    {
      "constant": true,
      "inputs": [],
      "name": "getContractCount",
      "outputs": [
        {
          "internalType": "uint256",
          "name": "",
          "type": "uint256"
        }
      ],
      "payable": false,
      "stateMutability": "view",
      "type": "function"
    },
    {
      "constant": true,
      "inputs": [
        {
          "internalType": "uint256",
          "name": "index",
          "type": "uint256"
        }
      ],
      "name": "getContractDetails",
      "outputs": [
        {
          "internalType": "uint256[12]",
          "name": "",
          "type": "uint256[12]"
        }
      ],
      "payable": false,
      "stateMutability": "view",
      "type": "function"
    }
  ],
  "bytecode": "0x608060405234801561001057600080fd5b50611fe9806100206000396000f3fe608060405234801561001057600080fd5b50600436106100cf5760003560e01c80636c41b0eb1161008c5780639047bf58116100665780639047bf58146102455780639399869d14610263578063a6ffc31114610281578063d06789471461029d576100cf565b80636c41b0eb146101ef5780638736381a1461020b5780638c1a8b8614610229576100cf565b80630be435bd146100d45780633684aa6614610106578063456f4424146101365780634b62c466146101665780634d6d6a9c1461018457806369dc9ff3146101b4575b600080fd5b6100ee60048036036100e991908101906117b0565b6102cf565b6040516100fd93929190611cda565b60405180910390f35b610120600480360361011b91908101906118e5565b6103b1565b60405161012d9190611c24565b60405180910390f35b610150600480360361014b91908101906118bc565b610577565b60405161015d9190611bed565b60405180910390f35b61016e6105aa565b60405161017b9190611cbf565b60405180910390f35b61019e600480360361019991908101906118bc565b6105b0565b6040516101ab9190611c08565b60405180910390f35b6101ce60048036036101c991908101906117b0565b610816565b6040516101e69c9b9a99989796959493929190611d18565b60405180910390f35b6102096004803603610204919081019061181a565b610aa8565b005b610213611014565b6040516102209190611cbf565b60405180910390f35b610243600480360361023e91908101906117d9565b61101a565b005b61024d61108c565b60405161025a9190611cbf565b60405180910390f35b61026b611092565b6040516102789190611cbf565b60405180910390f35b61029b600480360361029691908101906117d9565b61109c565b005b6102b760048036036102b291908101906117b0565b61110e565b6040516102c693929190611cda565b60405180910390f35b6005602052806000526040600020600091509050806000015490806001018054600181600116156101000203166002900480601f0160208091040260200160405190810160405280929190818152602001828054600181600116156101000203166002900480156103815780601f1061035657610100808354040283529160200191610381565b820191906000526020600020905b81548152906001019060200180831161036457829003601f168201915b5050505050908060020160009054906101000a900473ffffffffffffffffffffffffffffffffffffffff16905083565b6000806000803373ffffffffffffffffffffffffffffffffffffffff1673ffffffffffffffffffffffffffffffffffffffff1681526020019081526020016000209050600081600001541161043b576040517f08c379a000000000000000000000000000000000000000000000000000000000815260040161043290611c5f565b60405180910390fd5b8060080160019054906101000a900460ff161561048d576040517f08c379a000000000000000000000000000000000000000000000000000000000815260040161048490611c9f565b60405180910390fd5b6000603c826005015442038161049f57fe5b049050816006015481106104e8576040517f08c379a00000000000000000000000000000000000000000000000000000000081526004016104df90611c7f565b60405180910390fd5b816007016000815480929190600101919050555084826001015411158015610514575084826003015410155b8015610524575083826002015411155b8015610534575083826004015410155b6105565760008260080160006101000a81548160ff0219169083151502179055505b8160060154811061056b5761056a826111f0565b5b60019250505092915050565b60046020528060005260406000206000915054906101000a900473ffffffffffffffffffffffffffffffffffffffff1681565b60065481565b6105b8611573565b6000821180156105ca57506001548211155b610609576040517f08c379a000000000000000000000000000000000000000000000000000000000815260040161060090611c3f565b60405180910390fd5b60008060006004600086815260200190815260200160002060009054906101000a900473ffffffffffffffffffffffffffffffffffffffff1673ffffffffffffffffffffffffffffffffffffffff1673ffffffffffffffffffffffffffffffffffffffff1681526020019081526020016000209050610686611573565b8160000154816000600c811061069857fe5b6020020181815250508160010154816001600c81106106b357fe5b6020020181815250508160020154816002600c81106106ce57fe5b6020020181815250508160030154816003600c81106106e957fe5b6020020181815250508160040154816004600c811061070457fe5b6020020181815250508160050154816005600c811061071f57fe5b6020020181815250508160060154816006600c811061073a57fe5b6020020181815250508160070154816007600c811061075557fe5b6020020181815250508160080160009054906101000a900460ff1661077b57600061077e565b60015b60ff16816008600c811061078e57fe5b6020020181815250508160080160019054906101000a900460ff166107b45760006107b7565b60015b60ff16816009600c81106107c757fe5b602002018181525050816009016000015481600a600c81106107e557fe5b60200201818152505081600c016000015481600b600c811061080357fe5b6020020181815250508092505050919050565b60006020528060005260406000206000915090508060000154908060010154908060020154908060030154908060040154908060050154908060060154908060070154908060080160009054906101000a900460ff16908060080160019054906101000a900460ff16908060090160405180606001604052908160008201548152602001600182018054600181600116156101000203166002900480601f0160208091040260200160405190810160405280929190818152602001828054600181600116156101000203166002900480156109325780601f1061090757610100808354040283529160200191610932565b820191906000526020600020905b81548152906001019060200180831161091557829003601f168201915b505050505081526020016002820160009054906101000a900473ffffffffffffffffffffffffffffffffffffffff1673ffffffffffffffffffffffffffffffffffffffff1673ffffffffffffffffffffffffffffffffffffffff16815250509080600c0160405180606001604052908160008201548152602001600182018054600181600116156101000203166002900480601f016020809104026020016040519081016040528092919081815260200182805460018160011615610100020316600290048015610a445780601f10610a1957610100808354040283529160200191610a44565b820191906000526020600020905b815481529060010190602001808311610a2757829003601f168201915b505050505081526020016002820160009054906101000a900473ffffffffffffffffffffffffffffffffffffffff1673ffffffffffffffffffffffffffffffffffffffff1673ffffffffffffffffffffffffffffffffffffffff168152505090508c565b6000600260008473ffffffffffffffffffffffffffffffffffffffff1673ffffffffffffffffffffffffffffffffffffffff168152602001908152602001600020600001541415610afe57610afd838361132d565b5b600160008154809291906001019190505550604051806101800160405280600154815260200187600060028110610b3157fe5b6020020151815260200187600160028110610b4857fe5b6020020151815260200186600060028110610b5f57fe5b6020020151815260200186600160028110610b7657fe5b6020020151815260200142815260200185815260200160008152602001600115158152602001600015158152602001600260008573ffffffffffffffffffffffffffffffffffffffff1673ffffffffffffffffffffffffffffffffffffffff16815260200190815260200160002060405180606001604052908160008201548152602001600182018054600181600116156101000203166002900480601f016020809104026020016040519081016040528092919081815260200182805460018160011615610100020316600290048015610c925780601f10610c6757610100808354040283529160200191610c92565b820191906000526020600020905b815481529060010190602001808311610c7557829003601f168201915b505050505081526020016002820160009054906101000a900473ffffffffffffffffffffffffffffffffffffffff1673ffffffffffffffffffffffffffffffffffffffff1673ffffffffffffffffffffffffffffffffffffffff16815250508152602001600560008473ffffffffffffffffffffffffffffffffffffffff1673ffffffffffffffffffffffffffffffffffffffff16815260200190815260200160002060405180606001604052908160008201548152602001600182018054600181600116156101000203166002900480601f016020809104026020016040519081016040528092919081815260200182805460018160011615610100020316600290048015610de35780601f10610db857610100808354040283529160200191610de3565b820191906000526020600020905b815481529060010190602001808311610dc657829003601f168201915b505050505081526020016002820160009054906101000a900473ffffffffffffffffffffffffffffffffffffffff1673ffffffffffffffffffffffffffffffffffffffff1673ffffffffffffffffffffffffffffffffffffffff16815250508152506000808473ffffffffffffffffffffffffffffffffffffffff1673ffffffffffffffffffffffffffffffffffffffff168152602001908152602001600020600082015181600001556020820151816001015560408201518160020155606082015181600301556080820151816004015560a0820151816005015560c0820151816006015560e082015181600701556101008201518160080160006101000a81548160ff0219169083151502179055506101208201518160080160016101000a81548160ff02191690831515021790555061014082015181600901600082015181600001556020820151816001019080519060200190610f45929190611596565b5060408201518160020160006101000a81548173ffffffffffffffffffffffffffffffffffffffff021916908373ffffffffffffffffffffffffffffffffffffffff160217905550505061016082015181600c01600082015181600001556020820151816001019080519060200190610fbf929190611596565b5060408201518160020160006101000a81548173ffffffffffffffffffffffffffffffffffffffff021916908373ffffffffffffffffffffffffffffffffffffffff1602179055505050905050505050505050565b60015481565b60008090505b81518110156110885761107b6040518060400160405280600881526020017f456d706c6f79656500000000000000000000000000000000000000000000000081525083838151811061106e57fe5b602002602001015161132d565b8080600101915050611020565b5050565b60035481565b6000600154905090565b60008090505b815181101561110a576110fd6040518060400160405280600881526020017f456d706c6f7965720000000000000000000000000000000000000000000000008152508383815181106110f057fe5b602002602001015161147a565b80806001019150506110a2565b5050565b6002602052806000526040600020600091509050806000015490806001018054600181600116156101000203166002900480601f0160208091040260200160405190810160405280929190818152602001828054600181600116156101000203166002900480156111c05780601f10611195576101008083540402835291602001916111c0565b820191906000526020600020905b8154815290600101906020018083116111a357829003601f168201915b5050505050908060020160009054906101000a900473ffffffffffffffffffffffffffffffffffffffff16905083565b6000600460038360060154028161120357fe5b0490508160080160009054906101000a900460ff168015611228575081600701548111155b156112ad5760018260080160016101000a81548160ff0219169083151502179055507f871fa287ac4622a25ff1f1453a54595f1ff56e6cdb0a9db62276452c01b12da48260090160020160009054906101000a900473ffffffffffffffffffffffffffffffffffffffff166040516112a09190611bed565b60405180910390a1611329565b60008260080160016101000a81548160ff0219169083151502179055507f786a31ae102b4fb7a6a89d00c101a8acc314aab6cb828639132dd0c7815e84778260090160020160009054906101000a900473ffffffffffffffffffffffffffffffffffffffff166040516113209190611bed565b60405180910390a15b5050565b600360008154809291906001019190505550604051806060016040528060035481526020018381526020018273ffffffffffffffffffffffffffffffffffffffff16815250600260008373ffffffffffffffffffffffffffffffffffffffff1673ffffffffffffffffffffffffffffffffffffffff1681526020019081526020016000206000820151816000015560208201518160010190805190602001906113d7929190611596565b5060408201518160020160006101000a81548173ffffffffffffffffffffffffffffffffffffffff021916908373ffffffffffffffffffffffffffffffffffffffff1602179055509050508060046000600354815260200190815260200160002060006101000a81548173ffffffffffffffffffffffffffffffffffffffff021916908373ffffffffffffffffffffffffffffffffffffffff1602179055505050565b600660008154809291906001019190505550604051806060016040528060065481526020018381526020018273ffffffffffffffffffffffffffffffffffffffff16815250600560008373ffffffffffffffffffffffffffffffffffffffff1673ffffffffffffffffffffffffffffffffffffffff168152602001908152602001600020600082015181600001556020820151816001019080519060200190611524929190611596565b5060408201518160020160006101000a81548173ffffffffffffffffffffffffffffffffffffffff021916908373ffffffffffffffffffffffffffffffffffffffff1602179055509050505050565b604051806101800160405280600c90602082028038833980820191505090505090565b828054600181600116156101000203166002900490600052602060002090601f016020900481019282601f106115d757805160ff1916838001178555611605565b82800160010185558215611605579182015b828111156116045782518255916020019190600101906115e9565b5b5090506116129190611616565b5090565b61163891905b8082111561163457600081600090555060010161161c565b5090565b90565b60008135905061164a81611f78565b92915050565b600082601f83011261166157600080fd5b813561167461166f82611e0d565b611de0565b9150818183526020840193506020810190508385602084028201111561169957600080fd5b60005b838110156116c957816116af888261163b565b84526020840193506020830192505060018101905061169c565b5050505092915050565b600082601f8301126116e457600080fd5b60026116f76116f282611e35565b611de0565b9150818385602084028201111561170d57600080fd5b60005b8381101561173d5781611723888261179b565b845260208401935060208301925050600181019050611710565b5050505092915050565b600082601f83011261175857600080fd5b813561176b61176682611e57565b611de0565b9150808252602083016020830185838301111561178757600080fd5b611792838284611f25565b50505092915050565b6000813590506117aa81611f8f565b92915050565b6000602082840312156117c257600080fd5b60006117d08482850161163b565b91505092915050565b6000602082840312156117eb57600080fd5b600082013567ffffffffffffffff81111561180557600080fd5b61181184828501611650565b91505092915050565b600080600080600080610100878903121561183457600080fd5b600061184289828a016116d3565b965050604061185389828a016116d3565b955050608061186489828a0161179b565b94505060a087013567ffffffffffffffff81111561188157600080fd5b61188d89828a01611747565b93505060c061189e89828a0161163b565b92505060e06118af89828a0161163b565b9150509295509295509295565b6000602082840312156118ce57600080fd5b60006118dc8482850161179b565b91505092915050565b600080604083850312156118f857600080fd5b60006119068582860161179b565b92505060206119178582860161179b565b9150509250929050565b600061192d8383611bcf565b60208301905092915050565b61194281611edd565b82525050565b61195181611edd565b82525050565b61196081611e8d565b61196a8184611eb0565b925061197582611e83565b8060005b838110156119a657815161198d8782611921565b965061199883611ea3565b925050600181019050611979565b505050505050565b6119b781611eef565b82525050565b60006119c882611e98565b6119d28185611ebb565b93506119e2818560208601611f34565b6119eb81611f67565b840191505092915050565b6000611a0182611e98565b611a0b8185611ecc565b9350611a1b818560208601611f34565b611a2481611f67565b840191505092915050565b6000611a3c600d83611ecc565b91507f496e76616c696420696e646578000000000000000000000000000000000000006000830152602082019050919050565b6000611a7c601283611ecc565b91507f436f6e7472616374206e6f7420666f756e6400000000000000000000000000006000830152602082019050919050565b6000611abc601a83611ecc565b91507f436f6e7472616374206475726174696f6e2065786365656465640000000000006000830152602082019050919050565b6000611afc601a83611ecc565b91507f436f6e747261637420616c726561647920636f6d706c657465640000000000006000830152602082019050919050565b6000606083016000830151611b476000860182611bcf565b5060208301518482036020860152611b5f82826119bd565b9150506040830151611b746040860182611939565b508091505092915050565b6000606083016000830151611b976000860182611bcf565b5060208301518482036020860152611baf82826119bd565b9150506040830151611bc46040860182611939565b508091505092915050565b611bd881611f1b565b82525050565b611be781611f1b565b82525050565b6000602082019050611c026000830184611948565b92915050565b600061018082019050611c1e6000830184611957565b92915050565b6000602082019050611c3960008301846119ae565b92915050565b60006020820190508181036000830152611c5881611a2f565b9050919050565b60006020820190508181036000830152611c7881611a6f565b9050919050565b60006020820190508181036000830152611c9881611aaf565b9050919050565b60006020820190508181036000830152611cb881611aef565b9050919050565b6000602082019050611cd46000830184611bde565b92915050565b6000606082019050611cef6000830186611bde565b8181036020830152611d0181856119f6565b9050611d106040830184611948565b949350505050565b600061018082019050611d2e600083018f611bde565b611d3b602083018e611bde565b611d48604083018d611bde565b611d55606083018c611bde565b611d62608083018b611bde565b611d6f60a083018a611bde565b611d7c60c0830189611bde565b611d8960e0830188611bde565b611d976101008301876119ae565b611da56101208301866119ae565b818103610140830152611db88185611b2f565b9050818103610160830152611dcd8184611b7f565b90509d9c50505050505050505050505050565b6000604051905081810181811067ffffffffffffffff82111715611e0357600080fd5b8060405250919050565b600067ffffffffffffffff821115611e2457600080fd5b602082029050602081019050919050565b600067ffffffffffffffff821115611e4c57600080fd5b602082029050919050565b600067ffffffffffffffff821115611e6e57600080fd5b601f19601f8301169050602081019050919050565b6000819050919050565b6000600c9050919050565b600081519050919050565b6000602082019050919050565b600081905092915050565b600082825260208201905092915050565b600082825260208201905092915050565b6000611ee882611efb565b9050919050565b60008115159050919050565b600073ffffffffffffffffffffffffffffffffffffffff82169050919050565b6000819050919050565b82818337600083830152505050565b60005b83811015611f52578082015181840152602081019050611f37565b83811115611f61576000848401525b50505050565b6000601f19601f8301169050919050565b611f8181611edd565b8114611f8c57600080fd5b50565b611f9881611f1b565b8114611fa357600080fd5b5056fea365627a7a72315820486c9593ef767953f7bfe8827f55f02224ec00fcc916236deae8b9a625eb8d756c6578706572696d656e74616cf564736f6c63430005100040",
  "source": "pragma solidity >=0.5.16 <0.6.0;\n\npragma experimental ABIEncoderV2;\n\ncontract Refund {\n    // Model a Candidate\n\n    event CompletedEvent (\n        address employeeaddress\n    );\n\n    event FailedEvent (\n        address employeeaddress\n    );\n\n    // Employee data\n    struct Employee {\n        uint id;\n        string name;\n        address public_address;\n    }\n\n    // Employer data\n    struct Employer {\n        uint id;\n        string name;\n        address public_address;\n    }\n\n    // Contract data with boundary points, durations, completion checkers\n    struct ContractData {\n        uint id;\n        uint minimum_point_long;\n        uint minimum_point_lat;\n        uint maximum_point_long;\n        uint maximum_point_lat;\n        uint starting_time;\n        uint duration;\n        uint gathered_location_count;\n        bool contract_truth;\n        bool completed;\n        Employee employee;\n        Employer employer;\n    }\n    \n    // Contracts that have been recorded \n    mapping(address => ContractData) public contracts;\n    \n    uint public contractCount;\n\n    // Employees that have been recorded\n    mapping(address => Employee) public employees;\n    uint public employeeCount;\n    mapping(uint => address) public employeeMapping;\n \n    // Employers that have been recorded\n    mapping(address => Employer) public employers;\n    uint public employerCount;\n\n    function initializeEmployers(address[] memory addresses) public {\n        for (uint i = 0; i < addresses.length; i++) {\n            addEmployer(\"Employer\", addresses[i]);\n        }\n    }\n\n    function initializeEmployees(address[] memory addresses) public {\n        for (uint i = 0; i < addresses.length; i++) {\n            addEmployee(\"Employee\", addresses[i]);\n        }\n    }\n\n    function addEmployer(string memory _name, address userAddress) private {\n        employerCount++;\n        employers[userAddress] = Employer(employerCount, _name, userAddress);\n    }\n\n    function addEmployee(string memory _name, address userAddress) private {\n        employeeCount++;\n        employees[userAddress] = Employee(employeeCount, _name, userAddress);\n        employeeMapping[employeeCount] = userAddress;\n    }\n\n    function createContractData(\n        uint[2] memory minimumPoints,\n        uint[2] memory maximumPoints,\n        uint duration,\n        string memory employeeName,\n        address employeeAddress,\n        address employerAddress\n    ) public {\n        if (employees[employeeAddress].id == 0) {\n            addEmployee(employeeName, employeeAddress);\n        }\n\n        contractCount++;\n        contracts[employeeAddress] = ContractData(\n            contractCount,\n            minimumPoints[0],\n            minimumPoints[1],\n            maximumPoints[0],\n            maximumPoints[1],\n            block.timestamp,\n            duration,\n            0,\n            true,\n            false,\n            employees[employeeAddress],\n            employers[employerAddress]\n        );\n    }\n\n    function getLocation(uint longitude, uint latitude) public returns (bool) {\n        ContractData storage foundContract = contracts[msg.sender];\n        \n        require(foundContract.id > 0, \"Contract not found\");\n        require(!foundContract.completed, \"Contract already completed\");\n\n        uint duration = (block.timestamp - foundContract.starting_time) / 60;\n        require(duration < foundContract.duration, \"Contract duration exceeded\");\n\n        foundContract.gathered_location_count++;\n\n        if (!(foundContract.minimum_point_long <= longitude && foundContract.maximum_point_long >= longitude && foundContract.minimum_point_lat <= latitude && foundContract.maximum_point_lat >= latitude)) {\n            foundContract.contract_truth = false;\n        }\n\n        if (duration >= foundContract.duration) {\n            checkCompletion(foundContract);\n        }\n\n        return true;\n    }\n\n    function checkCompletion(ContractData storage foundContract) private {\n        uint minimumCheck = foundContract.duration * 3 / 4;\n        if (foundContract.contract_truth && minimumCheck <= foundContract.gathered_location_count) {\n            foundContract.completed = true;\n            emit CompletedEvent(foundContract.employee.public_address);\n        } else {\n            foundContract.completed = false;\n            emit FailedEvent(foundContract.employee.public_address);\n        }\n    }\n\n    // Function to get contract count\n    function getContractCount() public view returns (uint) {\n        return contractCount;\n    }\n\n    // Function to get contract details by index\n    function getContractDetails(uint index) public view returns (uint[12] memory) {\n        require(index > 0 && index <= contractCount, \"Invalid index\");\n        ContractData storage contractData = contracts[employeeMapping[index]];\n        uint[12] memory data;\n        data[0] = contractData.id;\n        data[1] = contractData.minimum_point_long;\n        data[2] = contractData.minimum_point_lat;\n        data[3] = contractData.maximum_point_long;\n        data[4] = contractData.maximum_point_lat;\n        data[5] = contractData.starting_time;\n        data[6] = contractData.duration;\n        data[7] = contractData.gathered_location_count;\n        data[8] = contractData.contract_truth ? 1 : 0; // Convert bool to uint\n        data[9] = contractData.completed ? 1 : 0; // Convert bool to uint\n        data[10] = contractData.employee.id;\n        data[11] = contractData.employer.id;\n        return data;\n    }\n}\n",
  "sourcePath": "/home/habte/GeoLogix-DApp-Project/refund_by_location/myproject/contracts/Refund.sol",
  "compiler": {
    "name": "solc",
    "version": "0.5.16+commit.9c3226ce.Emscripten.clang"
  },
  "schemaVersion": "3.4.16",
  "updatedAt": "2024-02-10T04:49:22.402Z",
  "networkType": "ethereum",
  "devdoc": {
    "methods": {}
  },
  "userdoc": {
    "methods": {}
  }
}