{
  "contractName": "RefunderContract",
  "abi": [
    {
      "inputs": [],
      "payable": false,
      "stateMutability": "nonpayable",
      "type": "constructor"
    },
    {
      "constant": true,
      "inputs": [
        {
          "internalType": "address",
          "name": "",
          "type": "address"
        }
      ],
      "name": "contractInfo",
      "outputs": [
        {
          "internalType": "int256",
          "name": "center_lat",
          "type": "int256"
        },
        {
          "internalType": "int256",
          "name": "center_lon",
          "type": "int256"
        },
        {
          "internalType": "int256",
          "name": "radius",
          "type": "int256"
        },
        {
          "internalType": "uint8",
          "name": "budget",
          "type": "uint8"
        },
        {
          "internalType": "bool",
          "name": "status",
          "type": "bool"
        }
      ],
      "payable": false,
      "stateMutability": "view",
      "type": "function"
    },
    {
      "constant": true,
      "inputs": [],
      "name": "owner",
      "outputs": [
        {
          "internalType": "address",
          "name": "",
          "type": "address"
        }
      ],
      "payable": false,
      "stateMutability": "view",
      "type": "function"
    },
    {
      "constant": false,
      "inputs": [
        {
          "internalType": "address",
          "name": "id",
          "type": "address"
        },
        {
          "internalType": "int256",
          "name": "lat",
          "type": "int256"
        },
        {
          "internalType": "int256",
          "name": "lon",
          "type": "int256"
        },
        {
          "internalType": "int256",
          "name": "rad",
          "type": "int256"
        },
        {
          "internalType": "uint8",
          "name": "fund",
          "type": "uint8"
        }
      ],
      "name": "addEmployee",
      "outputs": [],
      "payable": false,
      "stateMutability": "nonpayable",
      "type": "function"
    },
    {
      "constant": false,
      "inputs": [
        {
          "internalType": "int256",
          "name": "lat",
          "type": "int256"
        },
        {
          "internalType": "int256",
          "name": "lon",
          "type": "int256"
        }
      ],
      "name": "checkPosition",
      "outputs": [],
      "payable": false,
      "stateMutability": "nonpayable",
      "type": "function"
    },
    {
      "constant": false,
      "inputs": [
        {
          "internalType": "address payable",
          "name": "_to",
          "type": "address"
        }
      ],
      "name": "pay",
      "outputs": [],
      "payable": true,
      "stateMutability": "payable",
      "type": "function"
    },
    {
      "constant": false,
      "inputs": [],
      "name": "kill",
      "outputs": [],
      "payable": false,
      "stateMutability": "nonpayable",
      "type": "function"
    }
  ],
  "bytecode": "0x608060405234801561001057600080fd5b50336000806101000a81548173ffffffffffffffffffffffffffffffffffffffff021916908373ffffffffffffffffffffffffffffffffffffffff160217905550610c74806100606000396000f3fe6080604052600436106100555760003560e01c80630c11dedd1461005a57806341c0e1b51461009e57806350e7ee82146100b55780638610377c146101315780638da5cb5b14610176578063e11eb98d146101cd575b600080fd5b61009c6004803603602081101561007057600080fd5b81019080803573ffffffffffffffffffffffffffffffffffffffff169060200190929190505050610258565b005b3480156100aa57600080fd5b506100b36105db565b005b3480156100c157600080fd5b5061012f600480360360a08110156100d857600080fd5b81019080803573ffffffffffffffffffffffffffffffffffffffff169060200190929190803590602001909291908035906020019092919080359060200190929190803560ff169060200190929190505050610699565b005b34801561013d57600080fd5b506101746004803603604081101561015457600080fd5b81019080803590602001909291908035906020019092919050505061092a565b005b34801561018257600080fd5b5061018b610a9b565b604051808273ffffffffffffffffffffffffffffffffffffffff1673ffffffffffffffffffffffffffffffffffffffff16815260200191505060405180910390f35b3480156101d957600080fd5b5061021c600480360360208110156101f057600080fd5b81019080803573ffffffffffffffffffffffffffffffffffffffff169060200190929190505050610ac0565b604051808681526020018581526020018481526020018360ff1660ff168152602001821515151581526020019550505050505060405180910390f35b600160008273ffffffffffffffffffffffffffffffffffffffff1673ffffffffffffffffffffffffffffffffffffffff16815260200190815260200160002060009054906101000a900460ff16610317576040517f08c379a000000000000000000000000000000000000000000000000000000000815260040180806020018281038252601c8152602001807f526563697069656e74206973206e6f7420616e20656d706c6f7965650000000081525060200191505060405180910390fd5b600260008273ffffffffffffffffffffffffffffffffffffffff1673ffffffffffffffffffffffffffffffffffffffff16815260200190815260200160002060030160019054906101000a900460ff166103d9576040517f08c379a000000000000000000000000000000000000000000000000000000000815260040180806020018281038252601d8152602001807f456d706c6f796565206973206e6f742077697468696e2072616469757300000081525060200191505060405180910390fd5b600260008273ffffffffffffffffffffffffffffffffffffffff1673ffffffffffffffffffffffffffffffffffffffff16815260200190815260200160002060030160009054906101000a900460ff1660ff1634146104a0576040517f08c379a00000000000000000000000000000000000000000000000000000000081526004018080602001828103825260188152602001807f496e636f7272656374207061796d656e7420616d6f756e74000000000000000081525060200191505060405180910390fd5b60008173ffffffffffffffffffffffffffffffffffffffff163460405180600001905060006040518083038185875af1925050503d8060008114610500576040519150601f19603f3d011682016040523d82523d6000602084013e610505565b606091505b505090508061057c576040517f08c379a00000000000000000000000000000000000000000000000000000000081526004018080602001828103825260148152602001807f4661696c656420746f2073656e6420457468657200000000000000000000000081525060200191505060405180910390fd5b6000600260008473ffffffffffffffffffffffffffffffffffffffff1673ffffffffffffffffffffffffffffffffffffffff16815260200190815260200160002060030160016101000a81548160ff0219169083151502179055505050565b6000809054906101000a900473ffffffffffffffffffffffffffffffffffffffff1673ffffffffffffffffffffffffffffffffffffffff163373ffffffffffffffffffffffffffffffffffffffff1614610680576040517f08c379a000000000000000000000000000000000000000000000000000000000815260040180806020018281038252602a815260200180610c16602a913960400191505060405180910390fd5b3373ffffffffffffffffffffffffffffffffffffffff16ff5b6000809054906101000a900473ffffffffffffffffffffffffffffffffffffffff1673ffffffffffffffffffffffffffffffffffffffff163373ffffffffffffffffffffffffffffffffffffffff161461073e576040517f08c379a000000000000000000000000000000000000000000000000000000000815260040180806020018281038252602a815260200180610c16602a913960400191505060405180910390fd5b600160008673ffffffffffffffffffffffffffffffffffffffff1673ffffffffffffffffffffffffffffffffffffffff16815260200190815260200160002060009054906101000a900460ff16156107fe576040517f08c379a00000000000000000000000000000000000000000000000000000000081526004018080602001828103825260178152602001807f456d706c6f79656520616c72656164792065786973747300000000000000000081525060200191505060405180910390fd5b6040518060a001604052808581526020018481526020018381526020018260ff16815260200160001515815250600260008773ffffffffffffffffffffffffffffffffffffffff1673ffffffffffffffffffffffffffffffffffffffff16815260200190815260200160002060008201518160000155602082015181600101556040820151816002015560608201518160030160006101000a81548160ff021916908360ff16021790555060808201518160030160016101000a81548160ff02191690831515021790555090505060018060008773ffffffffffffffffffffffffffffffffffffffff1673ffffffffffffffffffffffffffffffffffffffff16815260200190815260200160002060006101000a81548160ff0219169083151502179055505050505050565b600160003373ffffffffffffffffffffffffffffffffffffffff1673ffffffffffffffffffffffffffffffffffffffff16815260200190815260200160002060009054906101000a900460ff166109e9576040517f08c379a00000000000000000000000000000000000000000000000000000000081526004018080602001828103825260198152602001807f43616c6c6572206973206e6f7420616e20656d706c6f7965650000000000000081525060200191505060405180910390fd5b60006109f6838333610b10565b9050600260003373ffffffffffffffffffffffffffffffffffffffff1673ffffffffffffffffffffffffffffffffffffffff168152602001908152602001600020600201548112600260003373ffffffffffffffffffffffffffffffffffffffff1673ffffffffffffffffffffffffffffffffffffffff16815260200190815260200160002060030160016101000a81548160ff021916908315150217905550505050565b6000809054906101000a900473ffffffffffffffffffffffffffffffffffffffff1681565b60026020528060005260406000206000915090508060000154908060010154908060020154908060030160009054906101000a900460ff16908060030160019054906101000a900460ff16905085565b600080600260008473ffffffffffffffffffffffffffffffffffffffff1673ffffffffffffffffffffffffffffffffffffffff16815260200190815260200160002060000154850390506000600260008573ffffffffffffffffffffffffffffffffffffffff1673ffffffffffffffffffffffffffffffffffffffff1681526020019081526020016000206001015485039050610bb281820283840201610bbd565b925050509392505050565b6000808290506000831315610c0c57600060026001850181610bdb57fe5b0590505b81811215610c0a578091506002826002848781610bf857fe5b05020181610c0257fe5b059050610bdf565b505b8091505091905056fe4f6e6c7920636f6e7472616374206f776e65722063616e2063616c6c20746869732066756e6374696f6ea265627a7a72315820972944d664a175fe6fa0edd31ca5bca5e3237c648d7296efad4051040789f74664736f6c63430005100032",
  "source": "// SPDX-License-Identifier: MIT\npragma solidity >=0.5.16 <0.6.0;\n\ncontract RefunderContract {\n    // Variables\n    address public owner; // Contract owner address\n    mapping(address => bool) private employees; // Mapping to track employees\n    mapping(address => ContractSpec) public contractInfo; // Mapping to store contract information for employees\n\n    // Struct to store contract information\n    struct ContractSpec {\n        int256 center_lat; // Latitude of the contract center\n        int256 center_lon; // Longitude of the contract center\n        int256 radius; // Radius of the contract\n        uint8 budget; // Budget allocated to the contract\n        bool status; // Current status of the contract\n    }\n\n    // Constructor to set the contract owner\n    constructor() public {\n        owner = msg.sender;\n    }\n\n    // Modifier to restrict access to only the contract owner\n    modifier onlyOwner() {\n        require(msg.sender == owner, \"Only contract owner can call this function\");\n        _;\n    }\n\n    // Function to add an employee and their contract information\n    function addEmployee(address id, int256 lat, int256 lon, int256 rad, uint8 fund) public onlyOwner {\n        require(!employees[id], \"Employee already exists\");\n        contractInfo[id] = ContractSpec(lat, lon, rad, fund, false);\n        employees[id] = true;\n    }\n\n    // Function to check if an employee is within the specified radius\n    function checkPosition(int256 lat, int256 lon) public {\n        require(employees[msg.sender], \"Caller is not an employee\");\n        int256 newRadius = calculateRadius(lat, lon, msg.sender);\n        contractInfo[msg.sender].status = (newRadius < contractInfo[msg.sender].radius);\n    }\n\n    // Function to pay an employee if they are within the contract radius\n    function pay(address payable _to) public payable {\n        require(employees[_to], \"Recipient is not an employee\");\n        require(contractInfo[_to].status, \"Employee is not within radius\");\n        require(msg.value == contractInfo[_to].budget, \"Incorrect payment amount\");\n        (bool sent, ) = _to.call.value(msg.value)(\"\");\n        require(sent, \"Failed to send Ether\");\n        contractInfo[_to].status = false;\n    }\n\n    // Function to destruct the contract, accessible only by the owner\n    function kill() public onlyOwner {\n        selfdestruct(msg.sender);\n    }\n\n    // Function to calculate the distance between two points\n    function calculateRadius(int256 lat, int256 lon, address adr) private view returns (int256) {\n        int256 x = lat - contractInfo[adr].center_lat;\n        int256 y = lon - contractInfo[adr].center_lon;\n        return sqrt(x * x + y * y);\n    }\n\n    // Function to calculate the square root\n    function sqrt(int256 input) private pure returns (int256) {\n        int256 output = input;\n        if (input > 0) {\n            int256 interim = (input + 1) / 2;\n            while (interim < output) {\n                output = interim;\n                interim = (input / output * 2 + output) / 2;\n            }\n        }\n        return output;\n    }\n}\n",
  "sourcePath": "/home/habte/GeoLogix-DApp-Project/refund_by_location/contracts/myRefundByLocation.sol",
  "compiler": {
    "name": "solc",
    "version": "0.5.16+commit.9c3226ce.Emscripten.clang"
  },
  "schemaVersion": "3.4.16",
  "updatedAt": "2024-02-08T11:20:10.205Z",
  "devdoc": {
    "methods": {}
  },
  "userdoc": {
    "methods": {}
  }
}